{
  "transactions": [
    {
      "hash": null,
      "transactionType": "CALL",
      "contractName": "Cypher",
      "contractAddress": "0xdDA32aabBBB6c44eFC567baC5F7C35f185338456",
      "function": "transferFrom(address,address,uint256)",
      "arguments": [
        "0x0aD0b792A54704dc7b6f85CBB774106d22E814d9",
        "0x70997970C51812dc3A010C7d01b50e0d17dc79C8",
        "4"
      ],
      "rpc": "http://20.254.17.229:8545",
      "transaction": {
        "type": "0x02",
        "from": "0x0ad0b792a54704dc7b6f85cbb774106d22e814d9",
        "to": "0xdda32aabbbb6c44efc567bac5f7c35f185338456",
        "gas": "0x219a8",
        "value": "0x0",
        "data": "0x23b872dd0000000000000000000000000ad0b792a54704dc7b6f85cbb774106d22e814d900000000000000000000000070997970c51812dc3a010c7d01b50e0d17dc79c80000000000000000000000000000000000000000000000000000000000000004",
        "nonce": "0x604",
        "accessList": []
      },
      "additionalContracts": [],
      "isFixedGasLimit": false
    },
    {
      "hash": null,
      "transactionType": "CALL",
      "contractName": "Cypher",
      "contractAddress": "0xdDA32aabBBB6c44eFC567baC5F7C35f185338456",
      "function": "transferFrom(address,address,uint256)",
      "arguments": [
        "0x0aD0b792A54704dc7b6f85CBB774106d22E814d9",
        "0x3C44CdDdB6a900fa2b585dd299e03d12FA4293BC",
        "158"
      ],
      "rpc": "http://20.254.17.229:8545",
      "transaction": {
        "type": "0x02",
        "from": "0x0ad0b792a54704dc7b6f85cbb774106d22e814d9",
        "to": "0xdda32aabbbb6c44efc567bac5f7c35f185338456",
        "gas": "0x20ad4",
        "value": "0x0",
        "data": "0x23b872dd0000000000000000000000000ad0b792a54704dc7b6f85cbb774106d22e814d90000000000000000000000003c44cdddb6a900fa2b585dd299e03d12fa4293bc000000000000000000000000000000000000000000000000000000000000009e",
        "nonce": "0x605",
        "accessList": []
      },
      "additionalContracts": [],
      "isFixedGasLimit": false
    },
    {
      "hash": null,
      "transactionType": "CALL",
      "contractName": "Cypher",
      "contractAddress": "0xdDA32aabBBB6c44eFC567baC5F7C35f185338456",
      "function": "transferFrom(address,address,uint256)",
      "arguments": [
        "0x0aD0b792A54704dc7b6f85CBB774106d22E814d9",
        "0x3C44CdDdB6a900fa2b585dd299e03d12FA4293BC",
        "241"
      ],
      "rpc": "http://20.254.17.229:8545",
      "transaction": {
        "type": "0x02",
        "from": "0x0ad0b792a54704dc7b6f85cbb774106d22e814d9",
        "to": "0xdda32aabbbb6c44efc567bac5f7c35f185338456",
        "gas": "0x1e350",
        "value": "0x0",
        "data": "0x23b872dd0000000000000000000000000ad0b792a54704dc7b6f85cbb774106d22e814d90000000000000000000000003c44cdddb6a900fa2b585dd299e03d12fa4293bc00000000000000000000000000000000000000000000000000000000000000f1",
        "nonce": "0x606",
        "accessList": []
      },
      "additionalContracts": [],
      "isFixedGasLimit": false
    },
    {
      "hash": null,
      "transactionType": "CALL",
      "contractName": "Cypher",
      "contractAddress": "0xdDA32aabBBB6c44eFC567baC5F7C35f185338456",
      "function": "transferFrom(address,address,uint256)",
      "arguments": [
        "0x0aD0b792A54704dc7b6f85CBB774106d22E814d9",
        "0x3C44CdDdB6a900fa2b585dd299e03d12FA4293BC",
        "285"
      ],
      "rpc": "http://20.254.17.229:8545",
      "transaction": {
        "type": "0x02",
        "from": "0x0ad0b792a54704dc7b6f85cbb774106d22e814d9",
        "to": "0xdda32aabbbb6c44efc567bac5f7c35f185338456",
        "gas": "0x1c887",
        "value": "0x0",
        "data": "0x23b872dd0000000000000000000000000ad0b792a54704dc7b6f85cbb774106d22e814d90000000000000000000000003c44cdddb6a900fa2b585dd299e03d12fa4293bc000000000000000000000000000000000000000000000000000000000000011d",
        "nonce": "0x607",
        "accessList": []
      },
      "additionalContracts": [],
      "isFixedGasLimit": false
    },
    {
      "hash": null,
      "transactionType": "CALL",
      "contractName": "Cypher",
      "contractAddress": "0xdDA32aabBBB6c44eFC567baC5F7C35f185338456",
      "function": "transferFrom(address,address,uint256)",
      "arguments": [
        "0x0aD0b792A54704dc7b6f85CBB774106d22E814d9",
        "0x3C44CdDdB6a900fa2b585dd299e03d12FA4293BC",
        "311"
      ],
      "rpc": "http://20.254.17.229:8545",
      "transaction": {
        "type": "0x02",
        "from": "0x0ad0b792a54704dc7b6f85cbb774106d22e814d9",
        "to": "0xdda32aabbbb6c44efc567bac5f7c35f185338456",
        "gas": "0x1c887",
        "value": "0x0",
        "data": "0x23b872dd0000000000000000000000000ad0b792a54704dc7b6f85cbb774106d22e814d90000000000000000000000003c44cdddb6a900fa2b585dd299e03d12fa4293bc0000000000000000000000000000000000000000000000000000000000000137",
        "nonce": "0x608",
        "accessList": []
      },
      "additionalContracts": [],
      "isFixedGasLimit": false
    },
    {
      "hash": null,
      "transactionType": "CALL",
      "contractName": "Cypher",
      "contractAddress": "0xdDA32aabBBB6c44eFC567baC5F7C35f185338456",
      "function": "transferFrom(address,address,uint256)",
      "arguments": [
        "0x0aD0b792A54704dc7b6f85CBB774106d22E814d9",
        "0x3C44CdDdB6a900fa2b585dd299e03d12FA4293BC",
        "389"
      ],
      "rpc": "http://20.254.17.229:8545",
      "transaction": {
        "type": "0x02",
        "from": "0x0ad0b792a54704dc7b6f85cbb774106d22e814d9",
        "to": "0xdda32aabbbb6c44efc567bac5f7c35f185338456",
        "gas": "0x1c887",
        "value": "0x0",
        "data": "0x23b872dd0000000000000000000000000ad0b792a54704dc7b6f85cbb774106d22e814d90000000000000000000000003c44cdddb6a900fa2b585dd299e03d12fa4293bc0000000000000000000000000000000000000000000000000000000000000185",
        "nonce": "0x609",
        "accessList": []
      },
      "additionalContracts": [],
      "isFixedGasLimit": false
    },
    {
      "hash": null,
      "transactionType": "CALL",
      "contractName": "Cypher",
      "contractAddress": "0xdDA32aabBBB6c44eFC567baC5F7C35f185338456",
      "function": "transferFrom(address,address,uint256)",
      "arguments": [
        "0x0aD0b792A54704dc7b6f85CBB774106d22E814d9",
        "0x3C44CdDdB6a900fa2b585dd299e03d12FA4293BC",
        "478"
      ],
      "rpc": "http://20.254.17.229:8545",
      "transaction": {
        "type": "0x02",
        "from": "0x0ad0b792a54704dc7b6f85cbb774106d22e814d9",
        "to": "0xdda32aabbbb6c44efc567bac5f7c35f185338456",
        "gas": "0x1c887",
        "value": "0x0",
        "data": "0x23b872dd0000000000000000000000000ad0b792a54704dc7b6f85cbb774106d22e814d90000000000000000000000003c44cdddb6a900fa2b585dd299e03d12fa4293bc00000000000000000000000000000000000000000000000000000000000001de",
        "nonce": "0x60a",
        "accessList": []
      },
      "additionalContracts": [],
      "isFixedGasLimit": false
    },
    {
      "hash": null,
      "transactionType": "CALL",
      "contractName": "Cypher",
      "contractAddress": "0xdDA32aabBBB6c44eFC567baC5F7C35f185338456",
      "function": "transferFrom(address,address,uint256)",
      "arguments": [
        "0x0aD0b792A54704dc7b6f85CBB774106d22E814d9",
        "0x3C44CdDdB6a900fa2b585dd299e03d12FA4293BC",
        "357"
      ],
      "rpc": "http://20.254.17.229:8545",
      "transaction": {
        "type": "0x02",
        "from": "0x0ad0b792a54704dc7b6f85cbb774106d22e814d9",
        "to": "0xdda32aabbbb6c44efc567bac5f7c35f185338456",
        "gas": "0x1c887",
        "value": "0x0",
        "data": "0x23b872dd0000000000000000000000000ad0b792a54704dc7b6f85cbb774106d22e814d90000000000000000000000003c44cdddb6a900fa2b585dd299e03d12fa4293bc0000000000000000000000000000000000000000000000000000000000000165",
        "nonce": "0x60b",
        "accessList": []
      },
      "additionalContracts": [],
      "isFixedGasLimit": false
    },
    {
      "hash": null,
      "transactionType": "CALL",
      "contractName": "Cypher",
      "contractAddress": "0xdDA32aabBBB6c44eFC567baC5F7C35f185338456",
      "function": "transferFrom(address,address,uint256)",
      "arguments": [
        "0x0aD0b792A54704dc7b6f85CBB774106d22E814d9",
        "0x3C44CdDdB6a900fa2b585dd299e03d12FA4293BC",
        "435"
      ],
      "rpc": "http://20.254.17.229:8545",
      "transaction": {
        "type": "0x02",
        "from": "0x0ad0b792a54704dc7b6f85cbb774106d22e814d9",
        "to": "0xdda32aabbbb6c44efc567bac5f7c35f185338456",
        "gas": "0x1c887",
        "value": "0x0",
        "data": "0x23b872dd0000000000000000000000000ad0b792a54704dc7b6f85cbb774106d22e814d90000000000000000000000003c44cdddb6a900fa2b585dd299e03d12fa4293bc00000000000000000000000000000000000000000000000000000000000001b3",
        "nonce": "0x60c",
        "accessList": []
      },
      "additionalContracts": [],
      "isFixedGasLimit": false
    },
    {
      "hash": null,
      "transactionType": "CALL",
      "contractName": "Cypher",
      "contractAddress": "0xdDA32aabBBB6c44eFC567baC5F7C35f185338456",
      "function": "transferFrom(address,address,uint256)",
      "arguments": [
        "0x0aD0b792A54704dc7b6f85CBB774106d22E814d9",
        "0x3C44CdDdB6a900fa2b585dd299e03d12FA4293BC",
        "1008"
      ],
      "rpc": "http://20.254.17.229:8545",
      "transaction": {
        "type": "0x02",
        "from": "0x0ad0b792a54704dc7b6f85cbb774106d22e814d9",
        "to": "0xdda32aabbbb6c44efc567bac5f7c35f185338456",
        "gas": "0x1c887",
        "value": "0x0",
        "data": "0x23b872dd0000000000000000000000000ad0b792a54704dc7b6f85cbb774106d22e814d90000000000000000000000003c44cdddb6a900fa2b585dd299e03d12fa4293bc00000000000000000000000000000000000000000000000000000000000003f0",
        "nonce": "0x60d",
        "accessList": []
      },
      "additionalContracts": [],
      "isFixedGasLimit": false
    },
    {
      "hash": null,
      "transactionType": "CALL",
      "contractName": "Cypher",
      "contractAddress": "0xdDA32aabBBB6c44eFC567baC5F7C35f185338456",
      "function": "transferFrom(address,address,uint256)",
      "arguments": [
        "0x0aD0b792A54704dc7b6f85CBB774106d22E814d9",
        "0x3C44CdDdB6a900fa2b585dd299e03d12FA4293BC",
        "1009"
      ],
      "rpc": "http://20.254.17.229:8545",
      "transaction": {
        "type": "0x02",
        "from": "0x0ad0b792a54704dc7b6f85cbb774106d22e814d9",
        "to": "0xdda32aabbbb6c44efc567bac5f7c35f185338456",
        "gas": "0x1c887",
        "value": "0x0",
        "data": "0x23b872dd0000000000000000000000000ad0b792a54704dc7b6f85cbb774106d22e814d90000000000000000000000003c44cdddb6a900fa2b585dd299e03d12fa4293bc00000000000000000000000000000000000000000000000000000000000003f1",
        "nonce": "0x60e",
        "accessList": []
      },
      "additionalContracts": [],
      "isFixedGasLimit": false
    },
    {
      "hash": null,
      "transactionType": "CALL",
      "contractName": "Cypher",
      "contractAddress": "0xdDA32aabBBB6c44eFC567baC5F7C35f185338456",
      "function": "transferFrom(address,address,uint256)",
      "arguments": [
        "0x0aD0b792A54704dc7b6f85CBB774106d22E814d9",
        "0x3C44CdDdB6a900fa2b585dd299e03d12FA4293BC",
        "1010"
      ],
      "rpc": "http://20.254.17.229:8545",
      "transaction": {
        "type": "0x02",
        "from": "0x0ad0b792a54704dc7b6f85cbb774106d22e814d9",
        "to": "0xdda32aabbbb6c44efc567bac5f7c35f185338456",
        "gas": "0x1c887",
        "value": "0x0",
        "data": "0x23b872dd0000000000000000000000000ad0b792a54704dc7b6f85cbb774106d22e814d90000000000000000000000003c44cdddb6a900fa2b585dd299e03d12fa4293bc00000000000000000000000000000000000000000000000000000000000003f2",
        "nonce": "0x60f",
        "accessList": []
      },
      "additionalContracts": [],
      "isFixedGasLimit": false
    },
    {
      "hash": null,
      "transactionType": "CALL",
      "contractName": "Cypher",
      "contractAddress": "0xdDA32aabBBB6c44eFC567baC5F7C35f185338456",
      "function": "transferFrom(address,address,uint256)",
      "arguments": [
        "0x0aD0b792A54704dc7b6f85CBB774106d22E814d9",
        "0x3C44CdDdB6a900fa2b585dd299e03d12FA4293BC",
        "1011"
      ],
      "rpc": "http://20.254.17.229:8545",
      "transaction": {
        "type": "0x02",
        "from": "0x0ad0b792a54704dc7b6f85cbb774106d22e814d9",
        "to": "0xdda32aabbbb6c44efc567bac5f7c35f185338456",
        "gas": "0x1c887",
        "value": "0x0",
        "data": "0x23b872dd0000000000000000000000000ad0b792a54704dc7b6f85cbb774106d22e814d90000000000000000000000003c44cdddb6a900fa2b585dd299e03d12fa4293bc00000000000000000000000000000000000000000000000000000000000003f3",
        "nonce": "0x610",
        "accessList": []
      },
      "additionalContracts": [],
      "isFixedGasLimit": false
    },
    {
      "hash": null,
      "transactionType": "CALL",
      "contractName": "Cypher",
      "contractAddress": "0xdDA32aabBBB6c44eFC567baC5F7C35f185338456",
      "function": "transferFrom(address,address,uint256)",
      "arguments": [
        "0x0aD0b792A54704dc7b6f85CBB774106d22E814d9",
        "0x3C44CdDdB6a900fa2b585dd299e03d12FA4293BC",
        "1012"
      ],
      "rpc": "http://20.254.17.229:8545",
      "transaction": {
        "type": "0x02",
        "from": "0x0ad0b792a54704dc7b6f85cbb774106d22e814d9",
        "to": "0xdda32aabbbb6c44efc567bac5f7c35f185338456",
        "gas": "0x1c887",
        "value": "0x0",
        "data": "0x23b872dd0000000000000000000000000ad0b792a54704dc7b6f85cbb774106d22e814d90000000000000000000000003c44cdddb6a900fa2b585dd299e03d12fa4293bc00000000000000000000000000000000000000000000000000000000000003f4",
        "nonce": "0x611",
        "accessList": []
      },
      "additionalContracts": [],
      "isFixedGasLimit": false
    },
    {
      "hash": null,
      "transactionType": "CALL",
      "contractName": "Cypher",
      "contractAddress": "0xdDA32aabBBB6c44eFC567baC5F7C35f185338456",
      "function": "transferFrom(address,address,uint256)",
      "arguments": [
        "0x0aD0b792A54704dc7b6f85CBB774106d22E814d9",
        "0x3C44CdDdB6a900fa2b585dd299e03d12FA4293BC",
        "1013"
      ],
      "rpc": "http://20.254.17.229:8545",
      "transaction": {
        "type": "0x02",
        "from": "0x0ad0b792a54704dc7b6f85cbb774106d22e814d9",
        "to": "0xdda32aabbbb6c44efc567bac5f7c35f185338456",
        "gas": "0x1c887",
        "value": "0x0",
        "data": "0x23b872dd0000000000000000000000000ad0b792a54704dc7b6f85cbb774106d22e814d90000000000000000000000003c44cdddb6a900fa2b585dd299e03d12fa4293bc00000000000000000000000000000000000000000000000000000000000003f5",
        "nonce": "0x612",
        "accessList": []
      },
      "additionalContracts": [],
      "isFixedGasLimit": false
    },
    {
      "hash": null,
      "transactionType": "CALL",
      "contractName": "Cypher",
      "contractAddress": "0xdDA32aabBBB6c44eFC567baC5F7C35f185338456",
      "function": "transferFrom(address,address,uint256)",
      "arguments": [
        "0x0aD0b792A54704dc7b6f85CBB774106d22E814d9",
        "0x3C44CdDdB6a900fa2b585dd299e03d12FA4293BC",
        "1014"
      ],
      "rpc": "http://20.254.17.229:8545",
      "transaction": {
        "type": "0x02",
        "from": "0x0ad0b792a54704dc7b6f85cbb774106d22e814d9",
        "to": "0xdda32aabbbb6c44efc567bac5f7c35f185338456",
        "gas": "0x1c887",
        "value": "0x0",
        "data": "0x23b872dd0000000000000000000000000ad0b792a54704dc7b6f85cbb774106d22e814d90000000000000000000000003c44cdddb6a900fa2b585dd299e03d12fa4293bc00000000000000000000000000000000000000000000000000000000000003f6",
        "nonce": "0x613",
        "accessList": []
      },
      "additionalContracts": [],
      "isFixedGasLimit": false
    },
    {
      "hash": null,
      "transactionType": "CALL",
      "contractName": "Cypher",
      "contractAddress": "0xdDA32aabBBB6c44eFC567baC5F7C35f185338456",
      "function": "transferFrom(address,address,uint256)",
      "arguments": [
        "0x0aD0b792A54704dc7b6f85CBB774106d22E814d9",
        "0x3C44CdDdB6a900fa2b585dd299e03d12FA4293BC",
        "1015"
      ],
      "rpc": "http://20.254.17.229:8545",
      "transaction": {
        "type": "0x02",
        "from": "0x0ad0b792a54704dc7b6f85cbb774106d22e814d9",
        "to": "0xdda32aabbbb6c44efc567bac5f7c35f185338456",
        "gas": "0x1c887",
        "value": "0x0",
        "data": "0x23b872dd0000000000000000000000000ad0b792a54704dc7b6f85cbb774106d22e814d90000000000000000000000003c44cdddb6a900fa2b585dd299e03d12fa4293bc00000000000000000000000000000000000000000000000000000000000003f7",
        "nonce": "0x614",
        "accessList": []
      },
      "additionalContracts": [],
      "isFixedGasLimit": false
    },
    {
      "hash": null,
      "transactionType": "CALL",
      "contractName": "Cypher",
      "contractAddress": "0xdDA32aabBBB6c44eFC567baC5F7C35f185338456",
      "function": "transferFrom(address,address,uint256)",
      "arguments": [
        "0x0aD0b792A54704dc7b6f85CBB774106d22E814d9",
        "0x3C44CdDdB6a900fa2b585dd299e03d12FA4293BC",
        "945"
      ],
      "rpc": "http://20.254.17.229:8545",
      "transaction": {
        "type": "0x02",
        "from": "0x0ad0b792a54704dc7b6f85cbb774106d22e814d9",
        "to": "0xdda32aabbbb6c44efc567bac5f7c35f185338456",
        "gas": "0x1c887",
        "value": "0x0",
        "data": "0x23b872dd0000000000000000000000000ad0b792a54704dc7b6f85cbb774106d22e814d90000000000000000000000003c44cdddb6a900fa2b585dd299e03d12fa4293bc00000000000000000000000000000000000000000000000000000000000003b1",
        "nonce": "0x615",
        "accessList": []
      },
      "additionalContracts": [],
      "isFixedGasLimit": false
    },
    {
      "hash": null,
      "transactionType": "CALL",
      "contractName": "Cypher",
      "contractAddress": "0xdDA32aabBBB6c44eFC567baC5F7C35f185338456",
      "function": "transferFrom(address,address,uint256)",
      "arguments": [
        "0x0aD0b792A54704dc7b6f85CBB774106d22E814d9",
        "0x3C44CdDdB6a900fa2b585dd299e03d12FA4293BC",
        "419"
      ],
      "rpc": "http://20.254.17.229:8545",
      "transaction": {
        "type": "0x02",
        "from": "0x0ad0b792a54704dc7b6f85cbb774106d22e814d9",
        "to": "0xdda32aabbbb6c44efc567bac5f7c35f185338456",
        "gas": "0x190fb",
        "value": "0x0",
        "data": "0x23b872dd0000000000000000000000000ad0b792a54704dc7b6f85cbb774106d22e814d90000000000000000000000003c44cdddb6a900fa2b585dd299e03d12fa4293bc00000000000000000000000000000000000000000000000000000000000001a3",
        "nonce": "0x616",
        "accessList": []
      },
      "additionalContracts": [],
      "isFixedGasLimit": false
    },
    {
      "hash": null,
      "transactionType": "CALL",
      "contractName": "Cypher",
      "contractAddress": "0xdDA32aabBBB6c44eFC567baC5F7C35f185338456",
      "function": "transferFrom(address,address,uint256)",
      "arguments": [
        "0x0aD0b792A54704dc7b6f85CBB774106d22E814d9",
        "0x3C44CdDdB6a900fa2b585dd299e03d12FA4293BC",
        "102"
      ],
      "rpc": "http://20.254.17.229:8545",
      "transaction": {
        "type": "0x02",
        "from": "0x0ad0b792a54704dc7b6f85cbb774106d22e814d9",
        "to": "0xdda32aabbbb6c44efc567bac5f7c35f185338456",
        "gas": "0x1a881",
        "value": "0x0",
        "data": "0x23b872dd0000000000000000000000000ad0b792a54704dc7b6f85cbb774106d22e814d90000000000000000000000003c44cdddb6a900fa2b585dd299e03d12fa4293bc0000000000000000000000000000000000000000000000000000000000000066",
        "nonce": "0x617",
        "accessList": []
      },
      "additionalContracts": [],
      "isFixedGasLimit": false
    },
    {
      "hash": null,
      "transactionType": "CALL",
      "contractName": "Cypher",
      "contractAddress": "0xdDA32aabBBB6c44eFC567baC5F7C35f185338456",
      "function": "transferFrom(address,address,uint256)",
      "arguments": [
        "0x0aD0b792A54704dc7b6f85CBB774106d22E814d9",
        "0x3C44CdDdB6a900fa2b585dd299e03d12FA4293BC",
        "978"
      ],
      "rpc": "http://20.254.17.229:8545",
      "transaction": {
        "type": "0x02",
        "from": "0x0ad0b792a54704dc7b6f85cbb774106d22e814d9",
        "to": "0xdda32aabbbb6c44efc567bac5f7c35f185338456",
        "gas": "0x190fb",
        "value": "0x0",
        "data": "0x23b872dd0000000000000000000000000ad0b792a54704dc7b6f85cbb774106d22e814d90000000000000000000000003c44cdddb6a900fa2b585dd299e03d12fa4293bc00000000000000000000000000000000000000000000000000000000000003d2",
        "nonce": "0x618",
        "accessList": []
      },
      "additionalContracts": [],
      "isFixedGasLimit": false
    },
    {
      "hash": null,
      "transactionType": "CALL",
      "contractName": "Cypher",
      "contractAddress": "0xdDA32aabBBB6c44eFC567baC5F7C35f185338456",
      "function": "transferFrom(address,address,uint256)",
      "arguments": [
        "0x0aD0b792A54704dc7b6f85CBB774106d22E814d9",
        "0x3C44CdDdB6a900fa2b585dd299e03d12FA4293BC",
        "902"
      ],
      "rpc": "http://20.254.17.229:8545",
      "transaction": {
        "type": "0x02",
        "from": "0x0ad0b792a54704dc7b6f85cbb774106d22e814d9",
        "to": "0xdda32aabbbb6c44efc567bac5f7c35f185338456",
        "gas": "0x190fb",
        "value": "0x0",
        "data": "0x23b872dd0000000000000000000000000ad0b792a54704dc7b6f85cbb774106d22e814d90000000000000000000000003c44cdddb6a900fa2b585dd299e03d12fa4293bc0000000000000000000000000000000000000000000000000000000000000386",
        "nonce": "0x619",
        "accessList": []
      },
      "additionalContracts": [],
      "isFixedGasLimit": false
    },
    {
      "hash": null,
      "transactionType": "CALL",
      "contractName": "Cypher",
      "contractAddress": "0xdDA32aabBBB6c44eFC567baC5F7C35f185338456",
      "function": "transferFrom(address,address,uint256)",
      "arguments": [
        "0x0aD0b792A54704dc7b6f85CBB774106d22E814d9",
        "0x3C44CdDdB6a900fa2b585dd299e03d12FA4293BC",
        "177"
      ],
      "rpc": "http://20.254.17.229:8545",
      "transaction": {
        "type": "0x02",
        "from": "0x0ad0b792a54704dc7b6f85cbb774106d22e814d9",
        "to": "0xdda32aabbbb6c44efc567bac5f7c35f185338456",
        "gas": "0x1a881",
        "value": "0x0",
        "data": "0x23b872dd0000000000000000000000000ad0b792a54704dc7b6f85cbb774106d22e814d90000000000000000000000003c44cdddb6a900fa2b585dd299e03d12fa4293bc00000000000000000000000000000000000000000000000000000000000000b1",
        "nonce": "0x61a",
        "accessList": []
      },
      "additionalContracts": [],
      "isFixedGasLimit": false
    },
    {
      "hash": null,
      "transactionType": "CALL",
      "contractName": "Cypher",
      "contractAddress": "0xdDA32aabBBB6c44eFC567baC5F7C35f185338456",
      "function": "transferFrom(address,address,uint256)",
      "arguments": [
        "0x0aD0b792A54704dc7b6f85CBB774106d22E814d9",
        "0x3C44CdDdB6a900fa2b585dd299e03d12FA4293BC",
        "100"
      ],
      "rpc": "http://20.254.17.229:8545",
      "transaction": {
        "type": "0x02",
        "from": "0x0ad0b792a54704dc7b6f85cbb774106d22e814d9",
        "to": "0xdda32aabbbb6c44efc567bac5f7c35f185338456",
        "gas": "0x1a881",
        "value": "0x0",
        "data": "0x23b872dd0000000000000000000000000ad0b792a54704dc7b6f85cbb774106d22e814d90000000000000000000000003c44cdddb6a900fa2b585dd299e03d12fa4293bc0000000000000000000000000000000000000000000000000000000000000064",
        "nonce": "0x61b",
        "accessList": []
      },
      "additionalContracts": [],
      "isFixedGasLimit": false
    },
    {
      "hash": null,
      "transactionType": "CALL",
      "contractName": "Cypher",
      "contractAddress": "0xdDA32aabBBB6c44eFC567baC5F7C35f185338456",
      "function": "transferFrom(address,address,uint256)",
      "arguments": [
        "0x0aD0b792A54704dc7b6f85CBB774106d22E814d9",
        "0x3C44CdDdB6a900fa2b585dd299e03d12FA4293BC",
        "440"
      ],
      "rpc": "http://20.254.17.229:8545",
      "transaction": {
        "type": "0x02",
        "from": "0x0ad0b792a54704dc7b6f85cbb774106d22e814d9",
        "to": "0xdda32aabbbb6c44efc567bac5f7c35f185338456",
        "gas": "0x190fb",
        "value": "0x0",
        "data": "0x23b872dd0000000000000000000000000ad0b792a54704dc7b6f85cbb774106d22e814d90000000000000000000000003c44cdddb6a900fa2b585dd299e03d12fa4293bc00000000000000000000000000000000000000000000000000000000000001b8",
        "nonce": "0x61c",
        "accessList": []
      },
      "additionalContracts": [],
      "isFixedGasLimit": false
    },
    {
      "hash": null,
      "transactionType": "CALL",
      "contractName": "Cypher",
      "contractAddress": "0xdDA32aabBBB6c44eFC567baC5F7C35f185338456",
      "function": "transferFrom(address,address,uint256)",
      "arguments": [
        "0x0aD0b792A54704dc7b6f85CBB774106d22E814d9",
        "0x3C44CdDdB6a900fa2b585dd299e03d12FA4293BC",
        "780"
      ],
      "rpc": "http://20.254.17.229:8545",
      "transaction": {
        "type": "0x02",
        "from": "0x0ad0b792a54704dc7b6f85cbb774106d22e814d9",
        "to": "0xdda32aabbbb6c44efc567bac5f7c35f185338456",
        "gas": "0x190fb",
        "value": "0x0",
        "data": "0x23b872dd0000000000000000000000000ad0b792a54704dc7b6f85cbb774106d22e814d90000000000000000000000003c44cdddb6a900fa2b585dd299e03d12fa4293bc000000000000000000000000000000000000000000000000000000000000030c",
        "nonce": "0x61d",
        "accessList": []
      },
      "additionalContracts": [],
      "isFixedGasLimit": false
    },
    {
      "hash": null,
      "transactionType": "CALL",
      "contractName": "Cypher",
      "contractAddress": "0xdDA32aabBBB6c44eFC567baC5F7C35f185338456",
      "function": "transferFrom(address,address,uint256)",
      "arguments": [
        "0x0aD0b792A54704dc7b6f85CBB774106d22E814d9",
        "0x3C44CdDdB6a900fa2b585dd299e03d12FA4293BC",
        "551"
      ],
      "rpc": "http://20.254.17.229:8545",
      "transaction": {
        "type": "0x02",
        "from": "0x0ad0b792a54704dc7b6f85cbb774106d22e814d9",
        "to": "0xdda32aabbbb6c44efc567bac5f7c35f185338456",
        "gas": "0x190fb",
        "value": "0x0",
        "data": "0x23b872dd0000000000000000000000000ad0b792a54704dc7b6f85cbb774106d22e814d90000000000000000000000003c44cdddb6a900fa2b585dd299e03d12fa4293bc0000000000000000000000000000000000000000000000000000000000000227",
        "nonce": "0x61e",
        "accessList": []
      },
      "additionalContracts": [],
      "isFixedGasLimit": false
    },
    {
      "hash": null,
      "transactionType": "CALL",
      "contractName": "Cypher",
      "contractAddress": "0xdDA32aabBBB6c44eFC567baC5F7C35f185338456",
      "function": "transferFrom(address,address,uint256)",
      "arguments": [
        "0x0aD0b792A54704dc7b6f85CBB774106d22E814d9",
        "0x3C44CdDdB6a900fa2b585dd299e03d12FA4293BC",
        "619"
      ],
      "rpc": "http://20.254.17.229:8545",
      "transaction": {
        "type": "0x02",
        "from": "0x0ad0b792a54704dc7b6f85cbb774106d22e814d9",
        "to": "0xdda32aabbbb6c44efc567bac5f7c35f185338456",
        "gas": "0x190fb",
        "value": "0x0",
        "data": "0x23b872dd0000000000000000000000000ad0b792a54704dc7b6f85cbb774106d22e814d90000000000000000000000003c44cdddb6a900fa2b585dd299e03d12fa4293bc000000000000000000000000000000000000000000000000000000000000026b",
        "nonce": "0x61f",
        "accessList": []
      },
      "additionalContracts": [],
      "isFixedGasLimit": false
    },
    {
      "hash": null,
      "transactionType": "CALL",
      "contractName": "Cypher",
      "contractAddress": "0xdDA32aabBBB6c44eFC567baC5F7C35f185338456",
      "function": "transferFrom(address,address,uint256)",
      "arguments": [
        "0x0aD0b792A54704dc7b6f85CBB774106d22E814d9",
        "0x3C44CdDdB6a900fa2b585dd299e03d12FA4293BC",
        "488"
      ],
      "rpc": "http://20.254.17.229:8545",
      "transaction": {
        "type": "0x02",
        "from": "0x0ad0b792a54704dc7b6f85cbb774106d22e814d9",
        "to": "0xdda32aabbbb6c44efc567bac5f7c35f185338456",
        "gas": "0x190fb",
        "value": "0x0",
        "data": "0x23b872dd0000000000000000000000000ad0b792a54704dc7b6f85cbb774106d22e814d90000000000000000000000003c44cdddb6a900fa2b585dd299e03d12fa4293bc00000000000000000000000000000000000000000000000000000000000001e8",
        "nonce": "0x620",
        "accessList": []
      },
      "additionalContracts": [],
      "isFixedGasLimit": false
    },
    {
      "hash": null,
      "transactionType": "CALL",
      "contractName": "Cypher",
      "contractAddress": "0xdDA32aabBBB6c44eFC567baC5F7C35f185338456",
      "function": "transferFrom(address,address,uint256)",
      "arguments": [
        "0x0aD0b792A54704dc7b6f85CBB774106d22E814d9",
        "0x3C44CdDdB6a900fa2b585dd299e03d12FA4293BC",
        "826"
      ],
      "rpc": "http://20.254.17.229:8545",
      "transaction": {
        "type": "0x02",
        "from": "0x0ad0b792a54704dc7b6f85cbb774106d22e814d9",
        "to": "0xdda32aabbbb6c44efc567bac5f7c35f185338456",
        "gas": "0x190fb",
        "value": "0x0",
        "data": "0x23b872dd0000000000000000000000000ad0b792a54704dc7b6f85cbb774106d22e814d90000000000000000000000003c44cdddb6a900fa2b585dd299e03d12fa4293bc000000000000000000000000000000000000000000000000000000000000033a",
        "nonce": "0x621",
        "accessList": []
      },
      "additionalContracts": [],
      "isFixedGasLimit": false
    },
    {
      "hash": null,
      "transactionType": "CALL",
      "contractName": "Cypher",
      "contractAddress": "0xdDA32aabBBB6c44eFC567baC5F7C35f185338456",
      "function": "transferFrom(address,address,uint256)",
      "arguments": [
        "0x0aD0b792A54704dc7b6f85CBB774106d22E814d9",
        "0x3C44CdDdB6a900fa2b585dd299e03d12FA4293BC",
        "971"
      ],
      "rpc": "http://20.254.17.229:8545",
      "transaction": {
        "type": "0x02",
        "from": "0x0ad0b792a54704dc7b6f85cbb774106d22e814d9",
        "to": "0xdda32aabbbb6c44efc567bac5f7c35f185338456",
        "gas": "0x190fb",
        "value": "0x0",
        "data": "0x23b872dd0000000000000000000000000ad0b792a54704dc7b6f85cbb774106d22e814d90000000000000000000000003c44cdddb6a900fa2b585dd299e03d12fa4293bc00000000000000000000000000000000000000000000000000000000000003cb",
        "nonce": "0x622",
        "accessList": []
      },
      "additionalContracts": [],
      "isFixedGasLimit": false
    },
    {
      "hash": null,
      "transactionType": "CALL",
      "contractName": "Cypher",
      "contractAddress": "0xdDA32aabBBB6c44eFC567baC5F7C35f185338456",
      "function": "transferFrom(address,address,uint256)",
      "arguments": [
        "0x0aD0b792A54704dc7b6f85CBB774106d22E814d9",
        "0x3C44CdDdB6a900fa2b585dd299e03d12FA4293BC",
        "602"
      ],
      "rpc": "http://20.254.17.229:8545",
      "transaction": {
        "type": "0x02",
        "from": "0x0ad0b792a54704dc7b6f85cbb774106d22e814d9",
        "to": "0xdda32aabbbb6c44efc567bac5f7c35f185338456",
        "gas": "0x190fb",
        "value": "0x0",
        "data": "0x23b872dd0000000000000000000000000ad0b792a54704dc7b6f85cbb774106d22e814d90000000000000000000000003c44cdddb6a900fa2b585dd299e03d12fa4293bc000000000000000000000000000000000000000000000000000000000000025a",
        "nonce": "0x623",
        "accessList": []
      },
      "additionalContracts": [],
      "isFixedGasLimit": false
    },
    {
      "hash": null,
      "transactionType": "CALL",
      "contractName": "Cypher",
      "contractAddress": "0xdDA32aabBBB6c44eFC567baC5F7C35f185338456",
      "function": "transferFrom(address,address,uint256)",
      "arguments": [
        "0x0aD0b792A54704dc7b6f85CBB774106d22E814d9",
        "0x3C44CdDdB6a900fa2b585dd299e03d12FA4293BC",
        "46"
      ],
      "rpc": "http://20.254.17.229:8545",
      "transaction": {
        "type": "0x02",
        "from": "0x0ad0b792a54704dc7b6f85cbb774106d22e814d9",
        "to": "0xdda32aabbbb6c44efc567bac5f7c35f185338456",
        "gas": "0x1a881",
        "value": "0x0",
        "data": "0x23b872dd0000000000000000000000000ad0b792a54704dc7b6f85cbb774106d22e814d90000000000000000000000003c44cdddb6a900fa2b585dd299e03d12fa4293bc000000000000000000000000000000000000000000000000000000000000002e",
        "nonce": "0x624",
        "accessList": []
      },
      "additionalContracts": [],
      "isFixedGasLimit": false
    },
    {
      "hash": null,
      "transactionType": "CALL",
      "contractName": "Cypher",
      "contractAddress": "0xdDA32aabBBB6c44eFC567baC5F7C35f185338456",
      "function": "transferFrom(address,address,uint256)",
      "arguments": [
        "0x0aD0b792A54704dc7b6f85CBB774106d22E814d9",
        "0x3C44CdDdB6a900fa2b585dd299e03d12FA4293BC",
        "744"
      ],
      "rpc": "http://20.254.17.229:8545",
      "transaction": {
        "type": "0x02",
        "from": "0x0ad0b792a54704dc7b6f85cbb774106d22e814d9",
        "to": "0xdda32aabbbb6c44efc567bac5f7c35f185338456",
        "gas": "0x190fb",
        "value": "0x0",
        "data": "0x23b872dd0000000000000000000000000ad0b792a54704dc7b6f85cbb774106d22e814d90000000000000000000000003c44cdddb6a900fa2b585dd299e03d12fa4293bc00000000000000000000000000000000000000000000000000000000000002e8",
        "nonce": "0x625",
        "accessList": []
      },
      "additionalContracts": [],
      "isFixedGasLimit": false
    },
    {
      "hash": null,
      "transactionType": "CALL",
      "contractName": "Cypher",
      "contractAddress": "0xdDA32aabBBB6c44eFC567baC5F7C35f185338456",
      "function": "transferFrom(address,address,uint256)",
      "arguments": [
        "0x0aD0b792A54704dc7b6f85CBB774106d22E814d9",
        "0x3C44CdDdB6a900fa2b585dd299e03d12FA4293BC",
        "402"
      ],
      "rpc": "http://20.254.17.229:8545",
      "transaction": {
        "type": "0x02",
        "from": "0x0ad0b792a54704dc7b6f85cbb774106d22e814d9",
        "to": "0xdda32aabbbb6c44efc567bac5f7c35f185338456",
        "gas": "0x190fb",
        "value": "0x0",
        "data": "0x23b872dd0000000000000000000000000ad0b792a54704dc7b6f85cbb774106d22e814d90000000000000000000000003c44cdddb6a900fa2b585dd299e03d12fa4293bc0000000000000000000000000000000000000000000000000000000000000192",
        "nonce": "0x626",
        "accessList": []
      },
      "additionalContracts": [],
      "isFixedGasLimit": false
    },
    {
      "hash": null,
      "transactionType": "CALL",
      "contractName": "Cypher",
      "contractAddress": "0xdDA32aabBBB6c44eFC567baC5F7C35f185338456",
      "function": "transferFrom(address,address,uint256)",
      "arguments": [
        "0x0aD0b792A54704dc7b6f85CBB774106d22E814d9",
        "0x3C44CdDdB6a900fa2b585dd299e03d12FA4293BC",
        "635"
      ],
      "rpc": "http://20.254.17.229:8545",
      "transaction": {
        "type": "0x02",
        "from": "0x0ad0b792a54704dc7b6f85cbb774106d22e814d9",
        "to": "0xdda32aabbbb6c44efc567bac5f7c35f185338456",
        "gas": "0x190fb",
        "value": "0x0",
        "data": "0x23b872dd0000000000000000000000000ad0b792a54704dc7b6f85cbb774106d22e814d90000000000000000000000003c44cdddb6a900fa2b585dd299e03d12fa4293bc000000000000000000000000000000000000000000000000000000000000027b",
        "nonce": "0x627",
        "accessList": []
      },
      "additionalContracts": [],
      "isFixedGasLimit": false
    },
    {
      "hash": null,
      "transactionType": "CALL",
      "contractName": "Cypher",
      "contractAddress": "0xdDA32aabBBB6c44eFC567baC5F7C35f185338456",
      "function": "transferFrom(address,address,uint256)",
      "arguments": [
        "0x0aD0b792A54704dc7b6f85CBB774106d22E814d9",
        "0x3C44CdDdB6a900fa2b585dd299e03d12FA4293BC",
        "390"
      ],
      "rpc": "http://20.254.17.229:8545",
      "transaction": {
        "type": "0x02",
        "from": "0x0ad0b792a54704dc7b6f85cbb774106d22e814d9",
        "to": "0xdda32aabbbb6c44efc567bac5f7c35f185338456",
        "gas": "0x1eed7",
        "value": "0x0",
        "data": "0x23b872dd0000000000000000000000000ad0b792a54704dc7b6f85cbb774106d22e814d90000000000000000000000003c44cdddb6a900fa2b585dd299e03d12fa4293bc0000000000000000000000000000000000000000000000000000000000000186",
        "nonce": "0x628",
        "accessList": []
      },
      "additionalContracts": [],
      "isFixedGasLimit": false
    },
    {
      "hash": null,
      "transactionType": "CALL",
      "contractName": null,
      "contractAddress": "0x3C2BafebbB0c8c58f39A976e725cD20D611d01e9",
      "function": "startCypherClaimPeriod()",
      "arguments": [],
      "rpc": "http://20.254.17.229:8545",
      "transaction": {
        "type": "0x02",
        "from": "0xf39fd6e51aad88f6f4ce6ab8827279cfffb92266",
        "to": "0x3c2bafebbb0c8c58f39a976e725cd20d611d01e9",
        "gas": "0x927e",
        "value": "0x0",
        "data": "0x012c6996",
        "nonce": "0x32c",
        "accessList": []
      },
      "additionalContracts": [],
      "isFixedGasLimit": false
    }
  ],
  "receipts": [],
  "libraries": [],
  "pending": [],
  "path": "/app/broadcast/StartAuction.s.sol/1/run-latest.json",
  "returns": {},
  "timestamp": 1684399649,
  "chain": 1,
  "multi": false,
  "commit": "cacb3e6"
}